{
  "contractName": "DocumentSignature",
  "abi": [
    {
      "inputs": [
        {
          "internalType": "address",
          "name": "account",
          "type": "address"
        },
        {
          "internalType": "string",
          "name": "base64",
          "type": "string"
        }
      ],
      "name": "sign",
      "outputs": [],
      "stateMutability": "nonpayable",
      "type": "function"
    },
    {
      "inputs": [
        {
          "internalType": "address",
          "name": "account",
          "type": "address"
        },
        {
          "internalType": "string",
          "name": "base64",
          "type": "string"
        }
      ],
      "name": "isSignedBy",
      "outputs": [
        {
          "internalType": "bool",
          "name": "",
          "type": "bool"
        }
      ],
      "stateMutability": "view",
      "type": "function",
      "constant": true
    }
  ],
  "bytecode": "0x608060405234801561001057600080fd5b506107a1806100206000396000f3fe608060405234801561001057600080fd5b50600436106100365760003560e01c8063a7ced21a1461003b578063ad2a9fcf1461006b575b600080fd5b61005560048036038101906100509190610598565b610087565b604051610062919061060f565b60405180910390f35b61008560048036038101906100809190610598565b610196565b005b60008061009383610309565b90506001600082815260200190815260200160002060009054906101000a900460ff166100c4576000915050610190565b60005b60008083815260200190815260200160002060010180549050811015610189578473ffffffffffffffffffffffffffffffffffffffff1660008084815260200190815260200160002060010182815481106101255761012461062a565b5b9060005260206000200160009054906101000a900473ffffffffffffffffffffffffffffffffffffffff1673ffffffffffffffffffffffffffffffffffffffff160361017657600192505050610190565b808061018190610692565b9150506100c7565b5060009150505b92915050565b60006101a182610309565b90506001600082815260200190815260200160002060009054906101000a900460ff1661028e576040518060400160405280828152602001600067ffffffffffffffff8111156101f4576101f361046d565b5b6040519080825280602002602001820160405280156102225781602001602082028036833780820191505090505b5081525060008083815260200190815260200160002060008201518160000155602082015181600101908051906020019061025e929190610339565b50905050600180600083815260200190815260200160002060006101000a81548160ff0219169083151502179055505b600080828152602001908152602001600020600101839080600181540180825580915050600190039060005260206000200160009091909190916101000a81548173ffffffffffffffffffffffffffffffffffffffff021916908373ffffffffffffffffffffffffffffffffffffffff160217905550505050565b60008160405160200161031c9190610754565b604051602081830303815290604052805190602001209050919050565b8280548282559060005260206000209081019282156103b2579160200282015b828111156103b15782518260006101000a81548173ffffffffffffffffffffffffffffffffffffffff021916908373ffffffffffffffffffffffffffffffffffffffff16021790555091602001919060010190610359565b5b5090506103bf91906103c3565b5090565b5b808211156103dc5760008160009055506001016103c4565b5090565b6000604051905090565b600080fd5b600080fd5b600073ffffffffffffffffffffffffffffffffffffffff82169050919050565b600061041f826103f4565b9050919050565b61042f81610414565b811461043a57600080fd5b50565b60008135905061044c81610426565b92915050565b600080fd5b600080fd5b6000601f19601f8301169050919050565b7f4e487b7100000000000000000000000000000000000000000000000000000000600052604160045260246000fd5b6104a58261045c565b810181811067ffffffffffffffff821117156104c4576104c361046d565b5b80604052505050565b60006104d76103e0565b90506104e3828261049c565b919050565b600067ffffffffffffffff8211156105035761050261046d565b5b61050c8261045c565b9050602081019050919050565b82818337600083830152505050565b600061053b610536846104e8565b6104cd565b90508281526020810184848401111561055757610556610457565b5b610562848285610519565b509392505050565b600082601f83011261057f5761057e610452565b5b813561058f848260208601610528565b91505092915050565b600080604083850312156105af576105ae6103ea565b5b60006105bd8582860161043d565b925050602083013567ffffffffffffffff8111156105de576105dd6103ef565b5b6105ea8582860161056a565b9150509250929050565b60008115159050919050565b610609816105f4565b82525050565b60006020820190506106246000830184610600565b92915050565b7f4e487b7100000000000000000000000000000000000000000000000000000000600052603260045260246000fd5b7f4e487b7100000000000000000000000000000000000000000000000000000000600052601160045260246000fd5b6000819050919050565b600061069d82610688565b91507fffffffffffffffffffffffffffffffffffffffffffffffffffffffffffffffff82036106cf576106ce610659565b5b600182019050919050565b600081519050919050565b600081905092915050565b60005b8381101561070e5780820151818401526020810190506106f3565b8381111561071d576000848401525b50505050565b600061072e826106da565b61073881856106e5565b93506107488185602086016106f0565b80840191505092915050565b60006107608284610723565b91508190509291505056fea2646970667358221220d4e283933c64edb8b0f39ef1a8bff2c49b145b88426eb7cfac718eba0c656ffb64736f6c634300080d0033",
  "immutableReferences": {},
  "source": "// SPDX-License-Identifier: GPL-3.0\npragma solidity >=0.8.13 <0.9.0;\n\ncontract DocumentSignature {\n    struct Document {\n        bytes32 hash;\n        address[] signers;\n    }\n\n    mapping(bytes32 => Document) private documents;\n    mapping(bytes32 => bool) private documentsExists;\n\n    function sign(address account, string memory base64) public {\n        // Calculate the hash of the URL using the hashDocument().\n        bytes32 hash = hashDocument(base64);\n\n        // Create a new Document struct in the documents mapping with the hash and an empty list of signers.\n        if(!documentsExists[hash]) {\n            documents[hash] = Document({\n                hash: hash,\n                signers: new address[](0)\n            });\n            documentsExists[hash] = true;\n        }\n\n        // Add the account address to the signers list of the corresponding Document struct. \n        documents[hash].signers.push(account);\n    }\n\n    function isSignedBy(address account, string memory base64) public view returns (bool) {\n        // Calculate the hash of the URL using the hashDocument().\n        bytes32 hash = hashDocument(base64);\n\n        // Check if the document exists in the documentsExists mapping.\n        if(!documentsExists[hash]) {\n            return false;\n        }\n\n        /*\n        * If the document exists, the function iterates through the list of signers for that document and \n        * returns true if the account address is found in the list, otherwise, it returns false.\n        */\n        for (uint i = 0; i < documents[hash].signers.length; i++) {\n            if(documents[hash].signers[i] == account) {\n                return true;\n            }\n        }\n\n        return false;\n    }\n\n    function hashDocument(string memory _document) internal pure returns (bytes32) {\n        return keccak256(abi.encodePacked(_document));\n    }\n}",
  "sourcePath": "/home/ugo/Dev/demo-smart-contract/contracts/DocumentSignature.sol",
  "compiler": {
    "name": "solc",
    "version": "0.8.13+commit.abaa5c0e.Emscripten.clang"
  },
  "schemaVersion": "3.4.14",
  "updatedAt": "2023-06-02T15:13:44.983Z",
  "networkType": "ethereum",
  "devdoc": {
    "kind": "dev",
    "methods": {},
    "version": 1
  },
  "userdoc": {
    "kind": "user",
    "methods": {},
    "version": 1
  }
}